:100000000C942A000C945F0D0C948C0D0C94B90D7B
:100010000C9447000C9447000C9447000C94470044
:100020000C9447000C9447000C9447000C94470034
:100030000C9447000C9447000C9447000C94470024
:100040000C9447000C9447000C9447000C94470014
:100050000C94470011241FBECFE5D8E0DEBFCDBF12
:1000600011E0A0E6B0E0E4E0F4E202C005900D92F9
:10007000A839B107D9F711E0A8E9B1E001C01D9294
:10008000AE39B107E1F70E9475070C9400120C9489
:100090000000EF92FF920F931F937B018C0120E0F1
:1000A00030E040E05FE40E94F50388238CF0C80153
:1000B000B70120E030E040E05FE40E94C1010E940F
:1000C00055049B01AC01205030404040504806C0D0
:1000D000C801B7010E9455049B01AC01B901CA01D6
:1000E0001F910F91FF90EF900895A0E0B0E0EBE733
:1000F000F0E00C948411DC012B01FA019C91923008
:1001000008F439C1EB018881823008F433C194309E
:1001100069F4843009F02FC111969C91119789815F
:10012000981709F428C1AFE8B0E025C1843009F47C
:1001300021C18230A9F4923009F01DC19A01AD01AC
:1001400088E0EA010990AE01E90109929E0181501F
:10015000C1F7E201898111969C918923818308C1AD
:10016000923009F407C112962D903C901397EB0141
:100170008A819B811496AD90BD90CD90DC901797AD
:10018000EC80FD800E811F819101281B390BB90184
:1001900037FF04C066277727621B730B6032710537
:1001A0000CF061C0121613066CF537014801062EDB
:1001B00004C096948794779467940A94D2F721E0C8
:1001C00030E040E050E004C0220F331F441F551FB1
:1001D0006A95D2F721503040404050402E213F21B7
:1001E00040235123211531054105510521F021E01E
:1001F00030E040E050E079018A01E628F72808293C
:1002000019293CC0232BD1F1260E371E350146019A
:10021000062E04C096948794779467940A94D2F734
:1002200021E030E040E050E004C0220F331F441FC3
:10023000551F6A95D2F721503040404050402A2146
:100240003B214C215D21211531054105510521F04E
:1002500021E030E040E050E059016A01A628B728CB
:10026000C828D9280BC0821593052CF01C01AA249C
:10027000BB24650103C0EE24FF24870111969C91E5
:10028000D20111968C91981709F445C0992339F041
:10029000A80197012A193B094C095D0906C0A6016E
:1002A00095012E193F09400B510B57FD08C01182D3
:1002B0003382228224833583468357831DC081E0A5
:1002C00081833382228288279927DC01821B930B4A
:1002D000A40BB50B84839583A683B7830DC0220F2F
:1002E000331F441F551F24833583468357838281E0
:1002F000938101979383828324813581468157813D
:10030000DA01C9010197A109B1098F5F9F4FAF4F72
:10031000BF4328F30BC0918333822282EA0CFB1C7B
:100320000C1D1D1DE482F5820683178383E0808304
:10033000248135814681578157FF1AC0C901AA27F8
:1003400097FDA095BA2F81709070A070B0705695EF
:10035000479537952795822B932BA42BB52B848318
:100360009583A683B7838281938101969383828349
:10037000DF0101C0D201CD01CDB7DEB7E2E10C94BF
:10038000A011A0E2B0E0E7ECF1E00C9490116983D9
:100390007A838B839C832D833E834F835887E9E048
:1003A000EE2EF12CEC0EFD1ECE010196B7010E943F
:1003B00046068E010F5E1F4FCE010596B8010E94C2
:1003C00046068A8991E089278A8BC701B801AE0168
:1003D000475E5F4F0E9475000E947105A096E6E09F
:1003E0000C94AC11A0E2B0E0E8EFF1E00C949011B5
:1003F00069837A838B839C832D833E834F835887C5
:10040000F9E0EF2EF12CEC0EFD1ECE010196B701A6
:100410000E9446068E010F5E1F4FCE010596B80161
:100420000E944606C701B801AE01475E5F4F0E94B9
:1004300075000E947105A096E6E00C94AC11A0E254
:10044000B0E0E5E2F2E00C94841169837A838B8357
:100450009C832D833E834F835887CE010196BE0136
:10046000675F7F4F0E944606CE010596BE016F5E14
:100470007F4F0E9446069985923088F089898230A4
:10048000C8F0943019F4823051F404C0843029F457
:10049000923081F48FE890E0C6C0923049F420E0B9
:1004A0009A858A89981321E02A87CE010996BBC0D4
:1004B000823049F420E09A858A89981321E02A8BBA
:1004C000CE014196B0C02D843E844F8458886D88FB
:1004D0007E888F88988CEE24FF248701AA24BB2471
:1004E000650140E050E060E070E0E0E0F0E0C10174
:1004F00081709070892BE9F0E60CF71C081D191D1E
:100500009A01AB012A0D3B1D4C1D5D1D80E090E062
:10051000A0E0B0E0E614F7040805190520F481E036
:1005200090E0A0E0B0E0BA01A901480F591F6A1F8E
:100530007B1FAA0CBB1CCC1CDD1C97FE08C081E0F5
:1005400090E0A0E0B0E0A82AB92ACA2ADB2A3196B6
:10055000E032F10549F0660C771C881C991C569412
:10056000479437942794C3CFFA85EA892B893C892D
:100570008B859C85280F391F2E5F3F4F17C0CA01FE
:1005800081709070892B61F016950795F794E79428
:1005900080E090E0A0E0B0E8E82AF92A0A2B1B2BC3
:1005A00076956795579547952F5F3F4F77FDE7CF36
:1005B0000CC0440F551F661F771F17FD4160EE0CDE
:1005C000FF1C001F111F21503040403090E05907A0
:1005D00090E0690790E4790760F32B8F3C8FDB0193
:1005E000CA018F779070A070B07080349105A1051A
:1005F000B10561F447FD0AC0E114F10401051105DC
:1006000029F0405C5F4F6F4F7F4F40781A8EFE1786
:1006100011F081E08A8F4D8F5E8F6F8F78A383E01A
:10062000898FCE0149960E947105A096E2E10C9453
:10063000A011A8E1B0E0EFE1F3E00C948C11698324
:100640007A838B839C832D833E834F835887B9E0C5
:10065000EB2EF12CEC0EFD1ECE010196B7010E948F
:1006600046068E010F5E1F4FCE010596B8010E940F
:1006700046062985223008F47EC03989323010F4CC
:10068000B8017CC08A859A8989278A87243011F02D
:10069000223031F4231709F06EC06FE870E06EC0AD
:1006A000343039F41D861E861F86188A1C861B86E8
:1006B00004C0323021F484E08987B7015FC02B8504
:1006C0003C858B899C89281B390B3C872B87ED84C3
:1006D000FE840F851889AD88BE88CF88D88CEA142F
:1006E000FB040C051D0540F4EE0CFF1C001F111F40
:1006F000215030403C872B8720E030E040E050E044
:1007000080E090E0A0E0B0E460E070E0EA14FB0478
:100710000C051D0540F0282B392B4A2B5B2BEA18C2
:10072000FB080C091D09B695A79597958795EE0CC2
:10073000FF1C001F111F6F5F7F4F6F31710531F775
:10074000DA01C9018F779070A070B0708034910584
:10075000A105B10561F427FD0AC0E114F10401050A
:10076000110529F0205C3F4F4F4F5F4F20782D87B8
:100770003E874F87588BBE01675F7F4FCB010E943A
:1007800071056896EAE00C94A811A8E1B0E0EBECE2
:10079000F3E00C94901169837A838B839C832D837F
:1007A0003E834F83588789E0E82EF12CEC0EFD1E26
:1007B000CE010196B7010E9446068E010F5E1F4FC3
:1007C000CE010596B8010E9446068985823040F028
:1007D0008989823028F0C701B8010E94BE0601C095
:1007E0008FEF6896E6E00C94AC11A8E1B0E0EBEF77
:1007F000F3E00C94901169837A838B839C832D831F
:100800003E834F83588789E0E82EF12CEC0EFD1EC5
:10081000CE010196B7010E9446068E010F5E1F4F62
:10082000CE010596B8010E9446068985823040F0C7
:100830008989823028F0C701B8010E94BE0601C034
:100840008FEF6896E6E00C94AC11A8E1B0E0EBE223
:10085000F4E00C94901169837A838B839C832D83BD
:100860003E834F83588789E0E82EF12CEC0EFD1E65
:10087000CE010196B7010E9446068E010F5E1F4F02
:10088000CE010596B8010E9446068985823040F067
:100890008989823028F0C701B8010E94BE0601C0D4
:1008A00081E06896E6E00C94AC11ACE0B0E0EBE5DA
:1008B000F4E00C94941169837A838B839C83CE013A
:1008C0000196BE016B5F7F4F0E9446068D8182308C
:1008D00061F1823050F1843021F48E81882351F10E
:1008E0002EC02F81388537FD20C06E812F31310514
:1008F0001CF06623F9F023C08EE190E0821B930B7D
:1009000029853A854B855C8504C056954795379572
:1009100027958A95D2F76623B1F05095409530958A
:1009200021953F4F4F4F5F4F0EC020E030E040E039
:1009300050E009C02FEF3FEF4FEF5FE704C020E02A
:1009400030E040E050E8B901CA012C96E2E00C9496
:10095000B011A8E0B0E0EFEAF4E00C948C117B0158
:100960008C01611571058105910519F482E0898377
:1009700060C083E089838EE1C82ED12CDC82CB82DB
:10098000ED82FE820F831887C801B7010E942205FD
:10099000FC013197F7FF3BC0222733272E1B3F0B6B
:1009A00057016801022E04C0D694C794B794A79447
:1009B0000A94D2F740E050E060E070E081E090E01F
:1009C000A0E0B0E004C0880F991FAA1FBB1F2A95A2
:1009D000D2F70197A109B1098E219F21A023B1234C
:1009E0000097A105B10521F041E050E060E070E022
:1009F0004A295B296C297D294D835E836F83788723
:100A00008EE190E08E1B9F0B9C838B8312C03097EE
:100A100081F00E2E04C0EE0CFF1C001F111F0A9463
:100A2000D2F7ED82FE820F831887CE1ADF0ADC82AE
:100A3000CB821A82CE0101960E9471052896EAE0C7
:100A40000C94A811EF92FF920F931F937B018C01DE
:100A500080E0E81680E0F80681E0080780E01807EB
:100A600088F48FEFE816F1040105110531F028F044
:100A700088E090E0A0E0B0E017C080E090E0A0E067
:100A8000B0E012C080E0E81680E0F80680E00807D9
:100A900081E0180728F088E190E0A0E0B0E004C011
:100AA00080E190E0A0E0B0E020E230E040E050E003
:100AB000281B390B4A0B5B0B04C016950795F7945E
:100AC000E7948A95D2F7F701E956FF4F8081281BFA
:100AD000310941095109C9011F910F91FF90EF9010
:100AE0000895DF92EF92FF920F931F93FC01E48031
:100AF000F58006811781D1808081823048F480E0C2
:100B000090E0A0E1B0E0E82AF92A0A2B1B2BA5C04F
:100B1000843009F49FC0823021F4EE24FF24870141
:100B200005C0E114F1040105110519F4E0E0F0E05D
:100B300096C0628173819FEF623879070CF05BC0C9
:100B400022E83FEF261B370B2A3131052CF020E03D
:100B500030E040E050E02AC0B801A701022E04C0F6
:100B600076956795579547950A94D2F781E090E07E
:100B7000A0E0B0E004C0880F991FAA1FBB1F2A95F0
:100B8000D2F70197A109B1098E219F21A023B1239A
:100B90000097A105B10521F081E090E0A0E0B0E070
:100BA0009A01AB01282B392B4A2B5B2BDA01C901A7
:100BB0008F779070A070B07080349105A105B10559
:100BC00039F427FF09C0205C3F4F4F4F5F4F04C0EF
:100BD000215C3F4F4F4F5F4FE0E0F0E02030A0E05E
:100BE0003A07A0E04A07A0E45A0710F0E1E0F0E07D
:100BF00079018A0127C06038710564F5FB01E1586D
:100C0000FF4FD801C7018F779070A070B07080340B
:100C10009105A105B10539F4E7FE0DC080E490E02F
:100C2000A0E0B0E004C08FE390E0A0E0B0E0E80E08
:100C3000F91E0A1F1B1F17FF05C016950795F7948D
:100C4000E794319687E016950795F794E7948A958F
:100C5000D1F705C0EE24FF248701EFEFF0E06E2FFF
:100C6000679566276795902F9F77D794DD24D79453
:100C70008E2F8695492F462B582F5D29B701CA0123
:100C80001F910F91FF90EF90DF900895FC01DB0121
:100C9000408151812281622F6F7770E0221F2227CD
:100CA000221F9381892F880F822B282F30E0991FD4
:100CB0009927991F11969C93119721153105A9F534
:100CC000411551056105710511F482E037C082E8D4
:100CD0009FEF13969C938E9312979A01AB0167E056
:100CE000220F331F441F551F6A95D1F783E08C9361
:100CF0000DC0220F331F441F551F12968D919C91DA
:100D00001397019713969C938E931297203080E04F
:100D1000380780E0480780E4580758F314962D936D
:100D20003D934D935C93179708952F3F310579F4C8
:100D3000411551056105710519F484E08C930895FE
:100D400064FF03C081E08C9312C01C9210C02F5727
:100D5000304013963C932E93129783E08C9387E058
:100D6000440F551F661F771F8A95D1F7706414963C
:100D70004D935D936D937C93179708951F93DC01BA
:100D8000FB019C91923008F447C08081823008F4C6
:100D900043C0943051F411961C91843099F58181AF
:100DA000682F70E0611B71093FC0843021F09230E0
:100DB00031F48230B9F18181882389F12DC01196F7
:100DC0001C9111978230F1F081811817D9F4129695
:100DD0002D913C911397828193818217930794F010
:100DE00028173907BCF014968D919D910D90BC91F8
:100DF000A02D2481358146815781281739074A075C
:100E00005B0718F4112341F00AC082179307A40767
:100E1000B50740F4112319F061E070E005C06FEFF1
:100E20007FEF02C060E070E0CB011F910895DF9377
:100E3000CF9300D0CDB7DEB79A838983A7E2B0E025
:100E4000E981FA818081807C8C93A6E2B0E0E9811F
:100E5000FA81818180688C930F900F90CF91DF9100
:100E60000895DF93CF930F92CDB7DEB78983A7E2C2
:100E7000B0E0E7E2F0E08081807E8C93A7E2B0E012
:100E8000E7E2F0E08081982F89818770892B8C932D
:100E9000A6E2B0E0E6E2F0E0808180648C93E6E2D6
:100EA000F0E08081882F90E0807190700097B9F316
:100EB000A6E2B0E0E6E2F0E08081482FE6E2F0E072
:100EC0008081282F30E081E090E0022E02C0880F60
:100ED000991F0A94E2F7842B8C93E4E2F0E080817E
:100EE00091810F90CF91DF910895DF93CF93CDB78C
:100EF000DEB72F970FB6F894DEBF0FBECDBF0E94AE
:100F0000E60D81E060E00E949E080E94A70F20E6A7
:100F100030E080E061E0A9010E94120F80E090E0E3
:100F2000AAE7B4E48B879C87AD87BE876B857C85F9
:100F30008D859E8520E030E04AE753E40E941F0241
:100F4000DC01CB018F839887A987BA876F81788569
:100F500089859A8520E030E040E85FE30E9425041F
:100F600088232CF481E090E09E838D833FC06F81C5
:100F7000788589859A8520E03FEF4FE757E40E9406
:100F8000C50318164CF56B857C858D859E8520E004
:100F900030E040E251E40E941F02DC01CB01BC01C1
:100FA000CD010E944900DC01CB019E838D830FC0DF
:100FB00089E190E09C838B838B819C810197F1F781
:100FC0009C838B838D819E8101979E838D838D81F0
:100FD0009E81009769F714C06F81788589859A850D
:100FE0000E944900DC01CB019E838D838D819E810F
:100FF0009A83898389819A810197F1F79A838983FA
:101000000E942B0F2FE630E080E060E0A9010E94F3
:10101000120F27E730E081E060E0A9010E94120F83
:101020000E94B90F8F8781E06AE00E94D00E8F8501
:10103000843650F08F85882F90E0A0E0B0E0BC01AE
:10104000CD010E94350F0CC08F85882F90E0A0E065
:10105000B0E0BC01CD010E94350F80E20E945F0E1E
:101060008F858E3188F421E830E080E069E0A901C5
:101070000E94120F81E060E040E00E94B70880E02B
:1010800060E00E94F808CCCF8F858E31A0F08F856C
:101090008C3388F428E830E080E069E0A9010E9400
:1010A000120F81E060E041E00E94B70880E069E152
:1010B0000E94F808B5CF8F858C33A0F08F858A35D4
:1010C00088F428E830E080E069E0A9010E94120F6E
:1010D00081E060E041E00E94B70880E062E30E94A6
:1010E000F8089ECF8F858A35A0F08F85883788F4E1
:1010F00028E830E080E069E0A9010E94120F81E059
:1011000060E041E00E94B70880E06BE40E94F808CC
:1011100087CF8F85883708F483CF28E830E080E0D8
:1011200069E0A9010E94120F81E060E041E00E94A5
:10113000B70880E064E60E94F80872CFDF93CF938F
:1011400000D0CDB7DEB789836A8389816A8141E0A7
:101150000E9427098A81982F9F5F8981692F41E02A
:101160000E9427090F900F90CF91DF910895DF9390
:10117000CF9300D00F92CDB7DEB789836A834B83BC
:101180008B81813071F489816A8141E00E94F10A8A
:101190008A81982F9F5F8981692F40E00E94F10A20
:1011A00021C08B81823071F489816A8140E00E9484
:1011B000F10A8A81982F9F5F8981692F41E00E94FF
:1011C000F10A10C08B81882369F489816A8140E02B
:1011D0000E94F10A8A81982F9F5F8981692F40E0E0
:1011E0000E94F10A0F900F900F90CF91DF91089518
:1011F000DF93CF9300D000D0CDB7DEB789836A8369
:101200008981282F30E03C832B838B819C81813026
:101210009105B1F02B813C812230310559F08B8151
:101220009C81009769F482E00E94FE0F8A810E94EF
:101230008B1006C082E00E9472108A810E942F11DA
:101240000F900F900F900F90CF91DF910895DF9343
:10125000CF9300D000D00F92CDB7DEB789836A83D9
:101260004B838A81883008F0D5C08981843008F0AA
:10127000D1C08981282F30E03D832C838C819D81D2
:101280008130910509F443C02C813D812230310524
:101290002CF48C819D81009771F0BCC02C813D8124
:1012A0002230310509F45FC08C819D818330910526
:1012B00009F485C0AFC08B818130A1F4AAE3B0E00E
:1012C000EAE3F0E08081482F8A81282F30E081E036
:1012D00090E0022E02C0880F991F0A94E2F7842B37
:1012E0008C9398C0AAE3B0E0EAE3F0E08081482F55
:1012F0008A81282F30E081E090E0022E02C0880F22
:10130000991F0A94E2F7809584238C9383C08B8184
:101310008130A1F4A7E3B0E0E7E3F0E08081482F5B
:101320008A81282F30E081E090E0022E02C0880FF1
:10133000991F0A94E2F7842B8C936CC0A7E3B0E06A
:10134000E7E3F0E08081482F8A81282F30E081E0B8
:1013500090E0022E02C0880F991F0A94E2F7809550
:1013600084238C9357C08B818130A1F4A4E3B0E037
:10137000E4E3F0E08081482F8A81282F30E081E08B
:1013800090E0022E02C0880F991F0A94E2F7842B86
:101390008C9340C0A4E3B0E0E4E3F0E08081482F08
:1013A0008A81282F30E081E090E0022E02C0880F71
:1013B000991F0A94E2F7809584238C932BC08B812C
:1013C0008130A1F4A1E3B0E0E1E3F0E08081482FB7
:1013D0008A81282F30E081E090E0022E02C0880F41
:1013E000991F0A94E2F7842B8C9314C0A1E3B0E018
:1013F000E1E3F0E08081482F8A81282F30E081E00E
:1014000090E0022E02C0880F991F0A94E2F780959F
:1014100084238C930F900F900F900F900F90CF918B
:10142000DF910895DF93CF9300D000D0CDB7DEB722
:1014300089836A838981843090F58981282F30E0FF
:101440003C832B838B819C8181309105D1F02B8152
:101450003C81223031052CF48B819C81009761F016
:101460001EC02B813C812230310581F08B819C8113
:101470008330910581F013C0EAE3F0E08A81808334
:101480000EC0E7E3F0E08A81808309C0E4E3F0E086
:101490008A81808304C0E1E3F0E08A8180830F9039
:1014A0000F900F900F90CF91DF910895DF93CF931E
:1014B00000D000D00F92CDB7DEB78A836B8319823C
:1014C0008B81883008F084C08A81843008F080C025
:1014D0008A81282F30E03D832C834C815D8141300F
:1014E000510579F18C819D818230910534F42C81F4
:1014F0003D812115310569F06BC04C815D81423021
:101500005105B9F18C819D818330910509F449C061
:101510005FC0E9E3F0E08081282F30E08B81882FE5
:1015200090E0A90102C0559547958A95E2F7CA0156
:1015300081709070882319F081E0898349C01982F5
:1015400047C0E6E3F0E08081282F30E08B81882FD0
:1015500090E0A90102C0559547958A95E2F7CA0126
:1015600081709070882319F081E0898331C01982DD
:101570002FC0E3E3F0E08081282F30E08B81882FBB
:1015800090E0A90102C0559547958A95E2F7CA01F6
:1015900081709070882319F081E0898319C01982C5
:1015A00017C0E0E3F0E08081282F30E08B81882FA6
:1015B00090E0A90102C0559547958A95E2F7CA01C6
:1015C00081709070882319F081E0898301C01982AD
:1015D00089810F900F900F900F900F90CF91DF9116
:1015E0000895DF93CF9300D000D00F92CDB7DEB730
:1015F00089836A834B838A81883008F0D5C08981CA
:10160000843008F0D1C08981282F30E03D832C83BD
:101610008C819D818130910509F443C02C813D81ED
:10162000223031052CF48C819D81009771F0BCC073
:101630002C813D812230310509F45FC08C819D8170
:101640008330910509F485C0AFC08B818130A1F44E
:10165000ABE3B0E0EBE3F0E08081482F8A81282FF4
:1016600030E081E090E0022E02C0880F991F0A94BA
:10167000E2F7842B8C9398C0ABE3B0E0EBE3F0E0AF
:101680008081482F8A81282F30E081E090E0022E6F
:1016900002C0880F991F0A94E2F7809584238C93E7
:1016A00083C08B818130A1F4A8E3B0E0E8E3F0E0EF
:1016B0008081482F8A81282F30E081E090E0022E3F
:1016C00002C0880F991F0A94E2F7842B8C936CC098
:1016D000A8E3B0E0E8E3F0E08081482F8A81282F7A
:1016E00030E081E090E0022E02C0880F991F0A943A
:1016F000E2F7809584238C9357C08B818130A1F4CD
:10170000A5E3B0E0E5E3F0E08081482F8A81282F4F
:1017100030E081E090E0022E02C0880F991F0A9409
:10172000E2F7842B8C9340C0A5E3B0E0E5E3F0E062
:101730008081482F8A81282F30E081E090E0022EBE
:1017400002C0880F991F0A94E2F7809584238C9336
:101750002BC08B818130A1F4A2E3B0E0E2E3F0E0A2
:101760008081482F8A81282F30E081E090E0022E8E
:1017700002C0880F991F0A94E2F7842B8C9314C03F
:10178000A2E3B0E0E2E3F0E08081482F8A81282FD5
:1017900030E081E090E0022E02C0880F991F0A9489
:1017A000E2F7809584238C930F900F900F900F9009
:1017B0000F90CF91DF910895DF93CF9300D000D0A9
:1017C000CDB7DEB78A8319828A81843090F58A8109
:1017D000282F30E03C832B838B819C8181309105C5
:1017E000D1F02B813C81223031052CF48B819C81FE
:1017F000009761F01EC02B813C812230310581F0C1
:101800008B819C818330910581F013C0E9E3F0E086
:10181000808189830EC0E6E3F0E08081898309C07E
:10182000E3E3F0E08081898304C0E0E3F0E08081BD
:10183000898389810F900F900F900F90CF91DF9146
:101840000895DF93CF9300D000D0CDB7DEB7898362
:101850006A838981843090F58981282F30E03C8328
:101860002B838B819C8181309105D1F02B813C8130
:10187000223031052CF48B819C81009761F01EC0D1
:101880002B813C812230310581F08B819C8183301A
:10189000910581F013C0EBE3F0E08A8180830EC0F4
:1018A000E8E3F0E08A81808309C0E5E3F0E08A8123
:1018B000808304C0E2E3F0E08A8180830F900F9080
:1018C0000F900F90CF91DF910895DF93CF9300D0C9
:1018D00000D000D0CDB7DEB789836A835C834B83A9
:1018E000A1E3B0E0E1E3F0E080818B7F8C93A5E59C
:1018F000B0E0E5E5F0E08081982F89818370892B45
:101900008C938B819C8190939901809398018A811B
:10191000282F30E03E832D838D819E81009731F00A
:101920002D813E812130310549F00FC0ABE5B0E09B
:10193000EBE5F0E080818F7B8C9307C0ABE5B0E0F6
:10194000EBE5F0E0808180648C9326960FB6F894E6
:10195000DEBF0FBECDBFCF91DF910895DF93CF9350
:1019600000D000D000D0CDB7DEB789836A835C8316
:101970004B83A1E3B0E0E1E3F0E08081877F8C93CB
:10198000A5E5B0E0E5E5F0E08081282F8981882F8A
:1019900090E083709070880F991F880F991F822B99
:1019A0008C938B819C8190939B0180939A018A8177
:1019B000282F30E03E832D838D819E81009731F06A
:1019C0002D813E812130310549F00FC0ABE5B0E0FB
:1019D000EBE5F0E080818F778C9307C0ABE5B0E05A
:1019E000EBE5F0E0808180688C9326960FB6F89442
:1019F000DEBF0FBECDBFCF91DF910895DF93CF93B0
:101A0000CDB7DEB728970FB6F894DEBF0FBECDBFB7
:101A100089836A835C834B83A7E3B0E0E7E3F0E06C
:101A200080818B7F8C938981282F30E038872F83AA
:101A30008F8198858130910531F02F813885223052
:101A4000310549F033C0A4E5B0E0E4E5F0E0808181
:101A50008F7B8C9307C0A4E5B0E0E4E5F0E08081E3
:101A600080648C938B819C8190939D0180939C01D9
:101A70008A81282F30E03E832D838D819E810097BF
:101A800031F02D813E812130310549F00FC0ABE5A9
:101A9000B0E0EBE5F0E080818F7D8C9307C0ABE593
:101AA000B0E0EBE5F0E0808180628C9328960FB681
:101AB000F894DEBF0FBECDBFCF91DF9108951F9286
:101AC0000F920FB60F9211242F933F934F935F9372
:101AD0006F937F938F939F93AF93BF93EF93FF93F6
:101AE000DF93CF93CDB7DEB7E0919801F0919901E4
:101AF0000995CF91DF91FF91EF91BF91AF919F91A8
:101B00008F917F916F915F914F913F912F910F90A6
:101B10000FBE0F901F9018951F920F920FB60F9245
:101B200011242F933F934F935F936F937F938F93E2
:101B30009F93AF93BF93EF93FF93DF93CF93CDB773
:101B4000DEB7E0919A01F0919B010995CF91DF9169
:101B5000FF91EF91BF91AF919F918F917F916F9185
:101B60005F914F913F912F910F900FBE0F901F905B
:101B700018951F920F920FB60F9211242F933F9337
:101B80004F935F936F937F938F939F93AF93BF9385
:101B9000EF93FF93DF93CF93CDB7DEB7E0919C0136
:101BA000F0919D010995CF91DF91FF91EF91BF9148
:101BB000AF919F918F917F916F915F914F913F91E5
:101BC0002F910F900FBE0F901F901895DF93CF931A
:101BD000CDB7DEB783E060E041E00E94270983E0F3
:101BE00062E041E00E94270964E170E080E090E05B
:101BF0000E945A0F82E06FEF0E94120A88E30E944F
:101C00001F0E61E070E080E090E00E945A0F86E0D5
:101C10000E941F0E61E070E080E090E00E945A0F89
:101C200080E80E941F0E61E070E080E090E00E947A
:101C30005A0F8FE00E941F0ECF91DF910895DF931E
:101C4000CF930F92CDB7DEB7898365E070E080E077
:101C500090E00E945A0F83E060E040E00E94F10AA9
:101C600061E070E080E090E00E945A0F83E062E063
:101C700041E00E94F10A61E070E080E090E00E94A3
:101C80005A0F82E069810E94210C61E070E080E0DF
:101C900090E00E945A0F83E062E040E00E94F10A67
:101CA00061E070E080E090E00E945A0F83E062E023
:101CB00041E00E94F10A0F90CF91DF910895DF93E8
:101CC000CF930F92CDB7DEB7898365E070E080E0F7
:101CD00090E00E945A0F83E060E041E00E94F10A28
:101CE00061E070E080E090E00E945A0F83E062E0E3
:101CF00041E00E94F10A61E070E080E090E00E9423
:101D00005A0F82E069810E94210C61E070E080E05E
:101D100090E00E945A0F83E062E040E00E94F10AE6
:101D200061E070E080E090E00E945A0F83E062E0A2
:101D300041E00E94F10A0F90CF91DF910895DF9367
:101D4000CF9300D00F92CDB7DEB79B838A831982E1
:101D50001CC0EA81FB8180810E945F0E8A819B8189
:101D600001969B838A838981803129F481E060E038
:101D70000E94D00E0AC08981803239F40E942B0F54
:101D800080E060E00E94D00E1982EA81FB818081B0
:101D90008823F9F60F900F900F90CF91DF9108955F
:101DA000DF93CF9300D000D00F92CDB7DEB78A83F8
:101DB0006B838A81282F30E03D832C838C819D8129
:101DC00081309105C1F02C813D81223031052CF408
:101DD0008C819D81009761F019C02C813D8122305A
:101DE000310569F08C819D818330910561F00EC0D1
:101DF0008B8189830BC08B81805C898307C08B8139
:101E0000805F898303C08B81805B8983898180683F
:101E10000E941F0E0F900F900F900F900F90CF9178
:101E2000DF910895DF93CF9300D000D0CDB7DEB718
:101E300089836A835C834B8389816A810E94D00E87
:101E40008B819C810E949F0E0F900F900F900F909E
:101E5000CF91DF910895DF93CF93CDB7DEB781E0C7
:101E60000E941F0ECF91DF910895DF93CF93CDB7DE
:101E7000DEB764970FB6F894DEBF0FBECDBF698B97
:101E80007A8B8B8B9C8B89899A899E012F5F3F4F20
:101E9000B9014AE050E00E94BB11CE0101960E94B8
:101EA0009F0E64960FB6F894DEBF0FBECDBFCF91E4
:101EB000DF910895DF93CF93CDB7DEB72C970FB6A0
:101EC000F894DEBF0FBECDBF69877A878B879C876A
:101ED0001D821E821F82188624C019821A821B82CC
:101EE0001C820BC089819A81AB81BC810196A11DA6
:101EF000B11D89839A83AB83BC8389819A81AB812D
:101F0000BC818F3F9105A105B10560F38D819E8154
:101F1000AF81B8850196A11DB11D8D839E83AF83CE
:101F2000B8872D813E814F81588589859A85AB85FB
:101F3000BC85281739074A075B0778F22C960FB63D
:101F4000F894DEBF0FBECDBFCF91DF910895DF9330
:101F5000CF9300D0CDB7DEB780EC898383E08A834E
:101F6000CE0101960E9417070F900F90CF91DF913D
:101F70000895DF93CF9300D00F92CDB7DEB71B82C9
:101F80001A82198282E00E9431079B838A838A81A8
:101F90009B81CC01A0E0B0E026E930E040E050E0D9
:101FA000BC01CD010E946511DC01CB01BC01CD015A
:101FB0000E94A904DC01CB01BC01CD012AE037ED70
:101FC00043E250E40E941F02DC01CB01BC01CD01C1
:101FD00020E030ED4FEB54E40E941903DC01CB010B
:101FE000BC01CD010E944900DC01CB0189838981BC
:101FF0000F900F900F90CF91DF910895DF93CF93C3
:102000000F92CDB7DEB78983A7E3B0E0E7E3F0E056
:10201000808188608C93E2E5F0E01082E3E5F0E0F7
:102020008981886680830F90CF91DF910895DF9337
:10203000CF9300D000D000D0CDB7DEB789837B83AB
:102040006A834C83ECE4F0E011821082E6E4F0E075
:102050008A819B81918380838C81282F30E03E830D
:102060002D838D819E818038910559F02D813E818F
:10207000203A3105B1F08D819E818032910549F081
:102080001EC0A1E3B0E0E1E3F0E0808180628C93C8
:1020900016C0A1E3B0E0E1E3F0E0808180618C93C1
:1020A0000EC0A1E3B0E0E1E3F0E0808180618C93B9
:1020B000A1E3B0E0E1E3F0E0808180628C93EFE4A3
:1020C000F0E08C8182608083EEE4F0E089818861B9
:1020D000808326960FB6F894DEBF0FBECDBFCF919A
:1020E000DF910895DF93CF930F92CDB7DEB7898349
:1020F000A1E3B0E0E1E3F0E0808180688C93E4E468
:10210000F0E01082E5E4F0E08981886680830F903A
:10211000CF91DF910895DF93CF9300D0CDB7DEB795
:102120008A8319828A81882F90E0A0E0B0E0BC0108
:10213000CD010E94A904DC01CB01BC01CD0120E04E
:1021400030E048EC52E40E941903DC01CB01BC01F1
:10215000CD0120E030E04FE753E40E941F02DC0194
:10216000CB01BC01CD010E944900DC01CB01898378
:10217000ECE5F0E0898180830F900F90CF91DF91A3
:102180000895DF93CF93CDB7DEB727970FB6F894B6
:10219000DEBF0FBECDBF9C838B836D831A821982F5
:1021A0008B819C81CC01A0E0B0E0BC01CD010E94FC
:1021B000A904DC01CB01BC01CD0120E030E048ECFA
:1021C00052E40E941903DC01CB01BC01CD0120E0E7
:1021D0003FEF4FE757E40E941F02DC01CB01BC0137
:1021E000CD010E944900DC01CB019A8389838D8156
:1021F000282F30E03F832E838E819F818038910588
:1022000059F02E813F81203A3105A1F08E819F81C6
:102210008032910541F01AC0EAE4F0E089819A81A8
:102220009183808313C0E8E4F0E089819A819183EF
:1022300080830CC0E8E4F0E089819A8191838083F7
:10224000EAE4F0E089819A819183808327960FB632
:10225000F894DEBF0FBECDBFCF91DF910895DF931D
:10226000CF9300D0CDB7DEB78A8319828A81882FB9
:1022700090E0A0E0B0E0BC01CD010E94A904DC0127
:10228000CB01BC01CD0120E030E048EC52E40E94DB
:102290001903DC01CB01BC01CD0120E030E04FE7A8
:1022A00053E40E941F02DC01CB01BC01CD010E945E
:1022B0004900DC01CB018983E3E4F0E0898180837C
:1022C0000F900F90CF91DF910895629FD001739F7F
:1022D000F001829FE00DF11D649FE00DF11D929FC2
:1022E000F00D839FF00D749FF00D659FF00D992701
:1022F000729FB00DE11DF91F639FB00DE11DF91F25
:10230000BD01CF01112408952F923F924F925F9209
:102310006F927F928F929F92AF92BF92CF92DF92F5
:10232000EF92FF920F931F93CF93DF93CDB7DEB75A
:10233000CA1BDB0B0FB6F894DEBF0FBECDBF0994EE
:102340002A88398848885F846E847D848C849B8445
:10235000AA84B984C884DF80EE80FD800C811B8153
:10236000AA81B981CE0FD11D0FB6F894DEBF0FBE82
:10237000CDBFED010895FB019F01E8944230C4F008
:102380004532B4F44A3029F497FB1EF490958195B8
:102390009F4F642F77270E94EC11805D8A330CF0E9
:1023A000895D8193CB010097A1F716F45DE251930B
:1023B0001082C9010C94DC11DC01FC01672F7191C2
:1023C0007723E1F7329704C07C916D93708362911B
:1023D000AE17BF07C8F30895AA1BBB1B51E107C086
:1023E000AA1FBB1FA617B70710F0A61BB70B881FA5
:1023F000991F5A95A9F780959095BC01CD01089534
:04240000F894FFCF7E
:1024040046414E20434F4E54524F4C4C4552004689
:10241400616E204973200054656D702E204973202D
:102424000053544F5020200052554E5F4357000034
:102434000000000000000000010202030303030483
:10244400040404040404040505050505050505053F
:10245400050505050505050606060606060606061F
:102464000606060606060606060606060606060608
:1024740006060606060606070707070707070707EF
:1024840007070707070707070707070707070707D8
:1024940007070707070707070707070707070707C8
:1024A40007070707070707070707070707070707B8
:1024B400070707070707070808080808080808089F
:1024C4000808080808080808080808080808080888
:1024D4000808080808080808080808080808080878
:1024E4000808080808080808080808080808080868
:1024F4000808080808080808080808080808080858
:102504000808080808080808080808080808080847
:102514000808080808080808080808080808080837
:102524000808080808080808080808080808080827
:08253400080808080808080067
:00000001FF
